:020000040800F2
:10000000884800204D020008012A0008DD2600086B
:1000100039280008A5050008DD32000800000000AE
:10002000000000000000000000000000312B00086C
:100030003107000800000000112A0008892E00087E
:1000400067020008670200086702000867020008EC
:1000500067020008670200086702000867020008DC
:1000600067020008670200086702000867020008CC
:1000700067020008670200086702000867020008BC
:1000800067020008670200086702000867020008AC
:10009000A905000867020008670200086702000857
:1000A000670200086702000867020008670200088C
:1000B000670200086702000867020008670200087C
:1000C000670200086702000867020008670200086C
:1000D00067020008D13200086702000867020008C2
:1000E000670200086702000867020008670200084C
:1000F000670200086702000867020008670200083C
:10010000670200086702000867020008670200082B
:100110006702000867020008852F000867020008D0
:100120006702000867020008250700086702000848
:1001300067020008670200086702000867020008FB
:1001400067020008670200086702000867020008EB
:1001500067020008670200086702000867020008DB
:1001600067020008670200086702000867020008CB
:10017000670200086702000867020008000000002C
:1001800067020008670200086702000867020008AB
:10019000670200086702000867020008670200089B
:1001A00000000000000000006702000800F002F8F4
:1001B00000F03CF80AA090E8000C82448344AAF1C5
:1001C0000107DA4501D100F031F8AFF2090EBAE8C3
:1001D0000F0013F0010F18BFFB1A43F0010318477B
:1001E0002C4000004C400000103A24BF78C878C171
:1001F000FAD8520724BF30C830C144BF04680C602D
:10020000704700000023002400250026103A28BF74
:1002100078C1FBD8520728BF30C148BF0B60704778
:100220001FB503F0AAFF1FBD10B510BD00F069F99E
:100230001146FFF7F5FF03F053F800F087F903B418
:10024000FFF7F2FF03BC00F08FF900000948804778
:1002500009480047FEE7FEE7FEE7FEE7FEE7FEE7A8
:10026000FEE7FEE7FEE7FEE704480549054A064BC0
:1002700070470000712F0008AD010008884200207F
:1002800088480020884400208844002053EA020C5B
:1002900000F069802DE9F04B4FF00006002B1FBFE6
:1002A000B3FA83F503FA05F424FA05F65E4012BFAB
:1002B0001643B2FA82F502FA05F4C5F120051EBF15
:1002C00022FA05FC44EA0C04203556EA044C4FEAB5
:1002D000144418BF641C4FF000084FF0000990420E
:1002E00071EB030C39D3002919BFB1FA81F701FA78
:1002F00007F6B0FA80F700FA07F6C7F120071EBF2D
:1003000020FA07FC46EA0C062037B6FBF4FCA7EB04
:100310000507103F07F01F0BCBF120062CFA06F65D
:100320000CFA0BFB44BFB3460026202FA4BF5E4649
:100330004FF0000B5BEA060C08BF4FF0010B19EB06
:100340000B0948EB0608ABFB027C06FB02CC0BFB5F
:1003500003CCC01B71EB0C01C1E70B4602464146C2
:100360004846BDE8F08B13B5084318BF4FF0FF3087
:100370000146AFF30080BDE81C407047032A40F2FD
:10038000308010F0030C00F0158011F8013BBCF137
:10039000020F624498BF11F801CB00F8013B38BF4F
:1003A00011F8013BA2F1040298BF00F801CB38BF5D
:1003B00000F8013B11F0030300F04A80083AC0F056
:1003C000088051F8043B083A51F804CBA0E8081023
:1003D000F5E7121D5CBF51F8043B40F8043BAFF356
:1003E0000080D20724BF11F8013B11F801CB48BFB0
:1003F00011F8012B24BF00F8013B00F801CB48BFE6
:1004000000F8012B70474FF000020429C0F0128061
:1004100010F0030C00F05080CCF1040CBCF1020F82
:1004200018BF00F8012BA8BF20F8022BA1EB0C018C
:1004300000F042B85FEAC17C24BF00F8012B00F84D
:10044000012B48BF00F8012B704770477047704779
:1004500010B5203AC0F00B80B1E81850A0E8185051
:10046000B1E81850A0E81850203ABFF4F5AF5FEAA1
:10047000027C24BFB1E81850A0E8185044BF18C946
:1004800018C0BDE810405FEA827C24BF51F8043BED
:1004900040F8043B08BF7047D20728BF31F8023B41
:1004A00048BF11F8012B28BF20F8023B48BF00F8D5
:1004B000012B70474FF0000200B513469446964654
:1004C000203922BFA0E80C50A0E80C50B1F1200167
:1004D000BFF4F7AF090728BFA0E80C5048BF0CC015
:1004E0005DF804EB890028BF40F8042B08BF704773
:1004F00048BF20F8022B11F0804F18BF00F8012BE5
:100500007047754600F02CF8AE4605006946534624
:1005100020F00700854618B020B5FFF7A5FEBDE81E
:1005200020404FF000064FF000074FF000084FF05A
:10053000000BAC46ACE8C009ACE8C009ACE8C009A7
:10054000ACE8C00921F007018D46704710B504469C
:10055000AFF300802046BDE81040FFF770BE0000FA
:10056000004870471800002001491820ABBEFEE784
:10057000260002007047000010B544F2D010C0F60B
:100580000000002102F0D8FE40F27804C2F200041C
:10059000206044F2B410C0F60000002102F0CCFE4E
:1005A000606010BDFEE7000040F28C20C2F2000047
:1005B00000F050BAB0B58AB0002501204FF4804158
:1005C00040F28C240790CDE900154FF68071089019
:1005D0000E20C2F20004CDE90215099069462046BA
:1005E0000695CDE9045500F015F9204600F03CFCD5
:1005F0002046022100F0A2F840F23810C2F20000BA
:100600000821C1614FF40071C0E90555C1600AB00D
:10061000B0BD000040F20123984208BF082A01D073
:10062000704700BFB0B5088840F2080CC2F2000C59
:1006300003BADCF800001C0CC0EB13434A88002806
:1006400048BF0023B3F5805FC8BFA3F5005313F57F
:10065000805FB8BF03F5005300EE103A9FED1E1AFD
:1006600092FAB2FEB8EEC00A9FED1C2A20EE010AF3
:1006700001EE10EAB8EEC11AB1EE083A80EE020AB5
:1006800021EE031A81EE021A40F284238888C2F216
:10069000000393ED002A12BA00BA897940F2EC0502
:1006A000120C000CC2F2000532EE000ACCF8004039
:1006B00083ED000A2C806A80A880A97185ED040A68
:1006C00085ED051A00F0CCFEA8610120EC602C81BC
:1006D0002877BDE8B04070470000343D27A099411D
:1006E00010B540F23814C2F20004010A6071002013
:1006F000C4F80600608140F28C20C2F20000217133
:1007000000F094F9002808BF10BD40F28C2004F1DD
:100710000C01221DC2F200002346BDE8104000F08B
:1007200025B8000040F2B420C2F2000000F032BC54
:100730007047000072B600BFFEE7000090F820206E
:10074000013A012A08D8006800F114020020136859
:1007500019431160704700BF00F1240201204FF4DB
:1007600080211368194311607047000010B590F89C
:1007700020E0D0F800C0AEF1010EBEF1010FDCF8B0
:1007800008E011D81EF0E05F18D0CEF3016E012012
:1007900000FA0EF018608B68D3B14868CC6844EA60
:1007A000C000034318E000BF00F1240101204FF412
:1007B00080220B681A430A6010BD00BF00F12401BB
:1007C00001204FF400120B681A430A6010BD00BFED
:1007D0000868CB6843EA40530CEB0E10C0F8803138
:1007E0000B69C0F88431097D012905D100F5C2717A
:1007F0000B6843F480730B605168C0F88C11126869
:1008000000F5C071C0F88821002001220B681A434E
:100810000A6010BDB0B590F82020013A012A2FD807
:1008200046F20060C4F20000026842F00102026079
:10083000026822F47C520260D1F814E0CC694A6A62
:100840000368012C43EA022202600EF01F024FF0FF
:10085000010303FA02F2C3696FEA020C23EA0203FE
:10086000C36113D02CBBC36803EA0C03C360CB681D
:100870008C8844EA034300EBCE0423640B4611E06A
:10088000416A41F4802141620120B0BDC368134335
:10089000C3600B688C8844EA034300EBCE042364F6
:1008A00001F10C038C681B8843EA044300EBCE047F
:1008B000636443688D6943EA0204D1F810E0096A71
:1008C000002D08BF03EA0C0444604369BEF1000F29
:1008D00043EA020408BF03EA0C040129446102D17F
:1008E000C1691143C161016821F00101016000206B
:1008F000B0BD00007047000010B590F82040013CEA
:10090000012C7BD8D0F800C0002900F08180DCF8F1
:100910001040A40700F081800CEB011CDCF8B04112
:100920000CF5D87E14F004049460DCF8B04119BFD3
:10093000E4085460640D1460DEF800400CF5DA7EC3
:1009400004F00204D460DCF8B44124075ABFDEF896
:10095000004004F00F0408241461DEF80040002970
:10096000C4F307249461DEF800404FEA1444546154
:10097000DCF8B8211A70026802EB0112D2F8B82133
:100980004FEA12225A70026802EB0112D2F8B82123
:100990004FEA12429A70026802EB0112D2F8B821B3
:1009A0004FEA1262DA70026802EB0112D2F8BC213F
:1009B0001A71026802EB0112D2F8BC214FEA12222E
:1009C0005A71026802EB0112D2F8BC214FEA1242BE
:1009D0009A71026802EB0112D2F8BC214FEA12624E
:1009E000DA71006814BF00F1100100F10C01002061
:1009F00020220B681A430A6010BD00BF00F12401D9
:100A000001204FF480220B681A430A6010BD00BF1A
:100A1000DCF80C40A4077FF47FAF00F12401012033
:100A20004FF400120B681A430A6010BD90F82010B2
:100A30000139012984BF00207047006881688268FD
:100A40008068C1F38061C2F3C0621144C0F30070DA
:100A5000084470472DE9F04F81B0044600684669AC
:100A6000D0F804908768D0F80CB0D0F810A0D0F877
:100A70001880F10704D1002530071DD424E000BF01
:100A8000F90710D00121BA07816009D4780700F175
:100A9000AF80380700F1B680204600F013FA02E07C
:100AA000204600F011FA0025F80500F18780F803D0
:100AB00000F1B180300707D51BF0100004D020688A
:100AC00045F400751021C160700708D51BF00800BF
:100AD00005D020680821C160204600F0A1F9B007C8
:100AE00006D52068C068800702D0204600F09AF939
:100AF000700607D51AF0100004D0206845F4806510
:100B000010210161B00608D51AF0080005D0206850
:100B100008210161204600F0A1F9F00606D5206801
:100B20000069800702D0204600F09AF9B00308D58A
:100B300019F0100005D0206810214160204600F017
:100B400091F9F00308D519F0080005D020680821B4
:100B50004160204600F0C2F9300440F19B805FEA1A
:100B6000497040F1948006F4807008EA1020284310
:100B70005FEA8871014648BF41F00201B20558BFE3
:100B800001465FEA48700D4648BF45F00405700510
:100B900058BF0D46300540F17A8018F0700000F023
:100BA00076801038000905286CD8DFE800F003597A
:100BB0005D61656945F0080564E000BF20684FF499
:100BC0008071BA0581600BD4780515D438051DD421
:100BD000204600F07BF9F8037FF56CAF1BE000BF07
:100BE000204600F075F9F8037FF564AF13E000BF0D
:100BF0004FF4006558E700BF05F50055F8037FF591
:100C000059AF08E04FF480554EE700BF05F5804529
:100C1000F8037FF54FAF20684FF48031BA0381604D
:100C20000AD4780310D4380314D4204600F052F9C3
:100C300030073FF541AF47E7204600F04DF9300758
:100C40003FF53AAF40E700BF05F5004530073FF5F7
:100C500033AF39E705F5803530073FF52DAF33E782
:100C600045F010050EE000BF45F020050AE000BF8A
:100C700045F0400506E000BF45F0800502E000BFFA
:100C800045F480752068816921F0700181612068D8
:100C90000421416055B1606A40EA05012046616265
:100CA00001B0BDE8F04FFFF725BE00BF01B0BDE8C1
:100CB000F08F0000B0B5C8B1044690F8200010B91C
:100CC000204600F071F82068016841F001010160E0
:100CD00000F0C6FB054600BF20684168C90707D180
:100CE00000F0BEFB401B0B28F6D312E00120B0BD84
:100CF000016821F00201016000F0B2FB054600BF6F
:100D00002068416889070DD500F0AAFB401B0B281D
:100D1000F6D3606A052140F400306062012084F857
:100D20002010B0BD217E0268012922F0800208BF98
:100D300080320260617E0268012922F0400208BF11
:100D400040320260A17E0268012922F0200208BF21
:100D500020320260E17E0268012922F0100218BFF1
:100D600010320260217F0268012922F0080208BFC8
:100D700008320260617F0268012922F0040208BF84
:100D800004320260D4E901C2D4E9033561691A432F
:100D90002A431143ACF101021143C161002001213A
:100DA000606284F82010B0BD80B586B0016846F25C
:100DB0000040C4F20000814202D006B080BD00BFF6
:100DC000002143F630020191C4F20202136900F5DA
:100DD000D43043F000731361136903F0007301937F
:100DE000019B0191136843F008031360126802230A
:100DF00002F008020192019ACDE902310921032291
:100E0000059101A90192049200F056FA14200521DF
:100E1000002200F0E9FB142000F0D2FB06B080BDF8
:100E20007047000080B58AB0016846F20042C4F203
:100E30000002914202D00AB080BD00BF03AA01ABFC
:100E40000021FFF759FD0028F5D103989DF81C20DB
:100E500001A9FFF7DFFB0AB080BD0000704700006A
:100E60007047000070470000B0B5044690F82000BD
:100E700001281DD1022084F820002068016821F09B
:100E80000101016000F0ECFA054600BF20684068EF
:100E9000C00713D000F0E4FA401B0B28F6D3606AB9
:100EA00040F400306062052084F820000120B0BDCD
:100EB000606A40F4002060620120B0BD00206062E2
:100EC000B0BD000070470000704700007047000090
:100ED0007047000070470000704700007047000036
:100EE00070B5866D044600F0BBFA94F835100229FF
:100EF00028D105462068216C026822F016020260A3
:100F0000426922F08002426109B9A16C19B10168FD
:100F100021F008010160016821F00101016000BFBA
:100F200020680068C00715D000F09AFA401B062818
:100F3000F6D320206065032084F83500002184F872
:100F4000341070BD802060650120002184F83410C9
:100F500070BD00BFE06D3F2101FA00F0B0600120DC
:100F600084F835000020002184F8341070BD0000A2
:100F700090F83510022909D1052180F83510006854
:100F8000016821F001010160002070478021416566
:100F900001207047F0B581B004460020009040F277
:100FA0000C00C2F200000268D4E9166048F2B513E2
:100FB00037680821C1F64E3381403942A2FB032530
:100FC0000CD0226813685B0708D5136823F004036C
:100FD0001360B160616D41F00101616501218140E3
:100FE000394208D022685269120604D5B160616D99
:100FF00041F00201616504218140394208D0226834
:101000001268920704D5B160616D41F00401616519
:1010100010218140394217D020680268120713D589
:10102000B16002680168520308D4C90508D4016898
:1010300021F008010160216C21B905E008033FD4CB
:10104000216C09B120468847E16D202000FA01F2A9
:101050003A4241D020680368DB063DD5B26094F87F
:1010600035300268052B1BD122F01602026042695E
:1010700022F080024261226C0AB9A26C1AB10268A5
:1010800022F0080202603F208840B060012084F80E
:101090003500216D0020002984F8340052D157E03A
:1010A0000168520310D4C90512D4016821F010015F
:1010B0000160012084F83500002084F8340007E046
:1010C000A16C0029BED1BFE7080301D4616C00E028
:1010D000E16B09B120468847606DC8B3606DC007F9
:1010E0002ED0052084F835002068A90A026822F075
:1010F00001020260009A01328A4200921AD8026804
:10110000D20717D0009A01328A42009212D80268A0
:10111000D2070FD0009A01328A4200920AD80268A0
:10112000D20707D0009A01328A42009202D80268A0
:10113000D207DFD1012084F83500002084F8340084
:10114000E16C29B1204601B0BDE8F040084700BF7E
:1011500001B0F0BD2DE9F041044600F081F9ECB199
:101160000546022084F835000020216884F8340008
:10117000086820F00100086021680868C00711D0E5
:1011800000F06EF9401B0528F6D903252023032023
:10119000636584F83550BDE8F08100BF0120BDE8EB
:1011A000F08100BF086848F23F02CFF21002D4E994
:1011B000013500EA020C04F10C0898E8C10143EA89
:1011C0000C032B431843D4E9072E30433843104314
:1011D000626A40EA0E00042A40EA08031CD1206B30
:1011E000D4E90A2E40EA0E00184308604869BEF1AF
:1011F000000F20F0030040EA020040F0040C11D080
:10120000B8F5005F36D0B8F1000F45D1022A46D0BC
:10121000012A3BD032B942E00B60486920F0070058
:1012200040EA020C01F0F8004AF6AB221038CAF688
:10123000AA22A0FB02231A0944F2AC13C0F6000351
:101240009A5C40F2FF335F284FF03F00C1F814C0B2
:1012500021EA030100FA02F088BF0431C4E9161242
:101260008860002301250020636584F83550BDE8BF
:10127000F08100BF032AD5D8012540230120DFE8F3
:1012800002F0030E030500BF82E700BFAEF1C0709D
:10129000B0FA80F0400904E0032A04D3C2D1CEF3AF
:1012A00000600028BED0012540230120636584F83A
:1012B0003550BDE8F08100002DE9F04F82B000F11B
:1012C0003E4242F2004502F1FF77C4F202050A22D3
:1012D00043F6004E4FEAB726A84208BF0922C4F2DF
:1012E000010E092E38BF4FEAB7220125002600273C
:1012F0004FF00008009208E008F101080437B8F147
:10130000100F06F1020600F0A7800C6805FA08F934
:1013100014EA090FF0D0D1F804B003220BF0030C4B
:10132000ACF10104B240012C6FEA020A10D88268C5
:10133000CC6802EA0A02B440224382604268CBF3DE
:10134000001422EA090204FA08F42243426005E08C
:10135000BCF1030F02D14FF0030C20E0C2688C688F
:1013600002EA0A02B4402243BCF1020FC26016D165
:101370006FF0030202EA58020244D2F820C007F0DC
:101380001C050F230C69AB402CEA030304FA05F596
:101390002B431362D1F804B001250BF0030C026853
:1013A0000CFA06F302EA0A021A431BF4403F0260F9
:1013B000A2D0002243F644030192C4F202031A6849
:1013C0004FF6084C42F480421A601A68CFF6FF7C50
:1013D00002F480420192019A28F00302724452F80A
:1013E0000C3007F00C050F24AC40A343009C04FA1A
:1013F00005F52B4342F80C30DEF808204B6842EA32
:10140000090543F60C4CDC0258BF22EA0905CEF868
:101410000850C4F2010CDCF800209C0242EA0905E5
:1014200058BF22EA0905CCF80050DEF804209C03DE
:1014300042EA090558BF22EA0905CEF80450DEF851
:101440000020DB0342EA090558BF22EA0905CEF86D
:101450000050012550E700BF02B0BDE8F08F00004A
:1014600044F23000C2F200000068704740F2000011
:1014700044F23001C2F20000C2F2000100780A68B2
:10148000104408607047000080B543F60040C4F285
:101490000200016841F400710160016841F480615B
:1014A0000160016841F480710160032000F0C8F818
:1014B0000F2000F005F800F061F8002080BD00006A
:1014C00070B586B0002543F640010195C4F20201D3
:1014D0000A68044642F010020A60096801A801F097
:1014E000100101910199694600F0A8F9049E002EAF
:1014F00018BF012600F0C2F94DF68361B040C4F276
:101500001B31A0FB01014FF0FF3000EB914140F295
:10151000143041F20002C2F20000C4F2000240F2B4
:10152000E733C0E90021C0E902530561856100F09D
:10153000C1FB054610B1284606B070BD40F214301C
:10154000C2F2000000F0E6FB05460028F3D1362089
:1015500000F036F80F2C0DD8362021460022002549
:1015600000F042F840F20400C2F200000460284695
:1015700006B070BD0125284606B070BD82B00020BF
:1015800043F640010190C4F202014A6842F48042ED
:101590004A604A6802F480420192019A0090086809
:1015A000002240F08050086008680F2100F0805051
:1015B000009000986FF0010002B000F015B8000034
:1015C000002848BF7047C1B200F01F00012202FA94
:1015D00000F04EF20012CEF2000242EAD10121F0F8
:1015E000030108607047000010B54EF60C5CCEF2A7
:1015F000000CDCF80030C3F3022E8EF00704042C3C
:1016000028BF0424BEF103034FF0FF3E0EFA04F49A
:1016100038BF0023A14399400EFA03F39A431143C4
:1016200000F00F0200F160430901043A03F564433E
:101630006244002848BF02F10C03197010BD00007D
:101640004EF60C51CEF200010A684FF6FF031A4025
:1016500060F30A2242F0806040F0FD70086070473D
:1016600070B582B00020019043F64000C4F2020041
:101670000168402641F0805101600068C4F20E26E6
:1016800000F080500190019847F204050120C4F257
:1016900000053060FFF7E4FE044600BF2868C00381
:1016A00006D4FFF7DDFE001BB0F57A7FF6D90EE019
:1016B00001207060FFF7D4FE044600BF2868800355
:1016C00008D4FFF7CDFE001BB0F57A7FF6D90320D2
:1016D00002B070BD002002B070BD00002DE9F041E5
:1016E000002800F08B8043F60808C4F20208044684
:1016F000D8F8F8030D4600F00F00884207D288F8AA
:10170000F853D8F8F80300F00F00A84276D120680B
:10171000810717D5410705D5D8F8001041F4E051ED
:10172000C8F80010010705D5D8F8001041F4604151
:10173000C8F80010D8F80010A26821F0F001114399
:10174000C8F80010C0073FD1D8F8F80300F00F0028
:10175000A84207D988F8F853D8F8F80300F00F002A
:10176000A8424BD12068410707D5D8F80010E2689D
:1017700021F4E0511143C8F80010000708D5D8F84B
:101780000000216920F4604040EAC100C8F8000070
:1017900000F09CF8D8F8001044F29412C1F3031141
:1017A000C0F60002515C40F20C0220FA01F140F256
:1017B0000400C2F200000068C2F200021160FFF7EC
:1017C0007FFE0020BDE8F0816068811E022907D2FB
:1017D00058F8081C89015CBF0120BDE8F08111E0C8
:1017E000012807D158F8081C89035CBF0120BDE817
:1017F000F08107E058F8081C890703D40120BDE8F0
:10180000F08100BFD8F8001021F003010843C8F8A8
:101810000000FFF725FE064641F28837D8F80000A1
:10182000616800F00C00B0EB810F8DD0FFF718FE5F
:10183000801BB842F2D90320BDE8F0810F2202607C
:1018400043F60802C4F20202136803F00303436084
:10185000136803F0F0038360136803F4E053C3607C
:10186000D2F800C04FF4E05303EADC030361D2F87E
:10187000F80300F00F0008607047000040F20C0011
:1018800043F60801C2F20000C4F2020100680968D0
:1018900044F2A412C1F38221C0F60002515CC84098
:1018A0007047000040F20C0043F60801C2F200004D
:1018B000C4F202010068096844F2A412C1F3423183
:1018C000C0F60002515CC8407047000010B543F6F6
:1018D0000404C4F20204606800F00C0008280BD075
:1018E000042819BF42F20040C0F2F40047F640005D
:1018F000C0F27D1010BD00BF206821682368490236
:1019000047F64001C0F27D1100F03F02C3F388109A
:101910005CBF42F20041C0F2F401A1FB00010023D0
:10192000FEF7B4FC21680222C1F3014102EB410140
:10193000B0FBF1F010BD00002DE9F04182B00028AD
:1019400068D00446007843F60006C007C4F20206D9
:101950000BD0B06800F00C00042840F09F80306885
:10196000800302D56068002854D0207880071AD5FB
:10197000B06810F00C0F09D0B06800F00C00082817
:1019800040F0A6807068400200F1A28030688007B5
:1019900002D5E06801283DD13068216920F0F800C7
:1019A00040EAC10030602078000737D42078400733
:1019B0004CD4A56955B3B06800F00C00082840F07D
:1019C000BB80012D26D07068E16900F480028A4254
:1019D00020D1216A00F03F028A421BD147F6C07134
:1019E000626A0140B1EB821F14D1A16A4FF6FF7306
:1019F000C903994300F44032A1F580318A4209D1EC
:101A0000E16A00F07060B0EB016F03D1002002B01A
:101A1000BDE8F081012002B0BDE8F08160690028D6
:101A200040F20000C4F2472076D00121C0F8801EA9
:101A3000FFF716FD054600BF706F8007B6D4FFF7AD
:101A40000FFD401B0228F7D9DDE000BF306C10F01D
:101A500080580AD100200190306C40F080503064F2
:101A6000306C00F080500190019847F20007C4F2FA
:101A700000073868C00541D4386840F48070386089
:101A8000FFF7EEFC054600BF3868C00536D4FFF707
:101A9000E7FC401B0228F7D9B5E000BFB06800F0B2
:101AA0000C00082803D1706840023FF558AF606809
:101AB000B0F5803F07D0B0F5A02F40F08D803068A2
:101AC00040F480203060306840F4803030608DE039
:101AD000E068002852D00020C4F2472001210160B4
:101AE000FFF7BEFC054600BF306880073FF554AFE6
:101AF000FFF7B6FC401B0228F6D984E0A068012855
:101B000005D005284ED1306F40F004003067306FAB
:101B100040F0010030674FE00021C0F8801EFFF761
:101B20009FFC0546706F80077FF540AFFFF798FC7C
:101B3000401B0228F6D966E00027C4F247270020A0
:101B40003866FFF78DFC022D05460BD13068800109
:101B50005ED5FFF785FC401B02284FF00300F5D946
:101B600055E700BF306880017FF550AFFFF778FC84
:101B7000401B02284FF00300F4D948E70020C4F2CC
:101B8000472000210160FFF76BFC054630688007A5
:101B90007FF509AFFFF764FC401B02284FF00300FC
:101BA000F4D934E7316F002821F001013167316F3A
:101BB00021F0040131674DD0FFF752FC054641F298
:101BC000883700BF306F800756D4FFF749FC401BB1
:101BD000B842F7D917E000BF3168002821F48031FE
:101BE0003160316821F4802131604FD0FFF738FC3B
:101BF000054600BF306880033FF5B7AEFFF730FC05
:101C0000401B6428F6D9032002B0BDE8F08100BF74
:101C100004F11C052FCD084340EA8210D9034FF68A
:101C2000FF729143A1F5803140EA0560084370607E
:101C300001203866FFF714FC044600BF30688001BD
:101C40003FF5E4AEFFF70CFC001B02284FF0030049
:101C5000F4D9DCE6FFF704FC054641F2883700BF03
:101C6000306F800708D5FFF7FBFB401BB8424FF0F1
:101C70000300F5D9CBE600BFB8F1000F7FF499AEB1
:101C8000306C20F08050306493E600BFFFF7E8FB33
:101C9000054600BF306880037FF567AEFFF7E0FBC5
:101CA000401B64284FF00300F4D9B0E670470000F1
:101CB00070470000002804BF0120704710B504469B
:101CC00090F83D0028B9002084F83C00204600F040
:101CD0001FF8022084F83D002068211D01F058F90A
:101CE000012084F8460084F83E0084F83F0084F820
:101CF000400084F8410084F8420084F8430084F8EE
:101D0000440084F8450084F83D00002010BD000028
:101D10007047000090F83D1001291CBF012070475A
:101D2000022180F83D10006841F2FF72C168C4F2E0
:101D30000002904241F00101C1600DDC40F2FF71F0
:101D4000C4F20001884215DCB0F1804F2AD040F285
:101D50000041C4F2000123E040F2FF31C4F201016E
:101D6000884213DC41F60001C4F20001884219D018
:101D7000002113E040F60001C4F20001884211D0B6
:101D800040F60041C4F200010AE000BF44F2000145
:101D9000C4F20101884205D040F20041C4F20101C1
:101DA000884206D1816801F00701062904BF00209E
:101DB0007047016841F00101016000207047000098
:101DC0007047000070B504460068C5680669B10731
:101DD00016D515F0020113D06FF002010161012147
:101DE00021778069800703D02046FFF7E9FF05E0EF
:101DF000204600F08FF8204600F08EF80020207773
:101E0000700719D515F0040016D020686FF0040192
:101E1000016102212177806910F4407F04D02046BF
:101E2000FFF7CEFF06E000BF204600F073F8204623
:101E300000F072F800202077300717D515F0080061
:101E400014D020686FF00801016104212177C06976
:101E5000800703D02046FFF7B3FF05E0204600F0DF
:101E600059F8204600F058F800202077F00619D5E0
:101E700015F0100016D020686FF0100101610821E4
:101E80002177C06910F4407F04D02046FFF798FF07
:101E900006E000BF204600F03DF8204600F03CF888
:101EA00000202077F00718BF15F0010002D130069E
:101EB00009D412E020686FF001010161204600F0B2
:101EC0002DF8300609D515F0800006D020686FF097
:101ED000800101612046FFF7E9FE700609D515F083
:101EE000400006D020686FF040010161204600F0FC
:101EF0001FF8B00658BF70BD15F0200008D021684B
:101F00006FF0200220460A61BDE87040FFF7D0BEA6
:101F100070BD00007047000070470000006841F28B
:101F20000001C4F20001884218BF7047FFF79EBA53
:101F30007047000081B090F84230202B08D1002972
:101F40004FF0010318BF002A06D1184601B07047B0
:101F50000223184601B07047012303630023436343
:101F6000816222218285C285436480F84210026921
:101F700001681AB1CA6842F48072CA604A6942F0C4
:101F800001024A61CA6842F02002CA60026B012A5B
:101F900030D1002200920A680092496800910099AD
:101FA000016851E8031F026841F0100142E8031381
:101FB000DBB1016851E8031F026841F0100142E8FB
:101FC000031393B1016851E8031F026841F0100147
:101FD00042E803134BB1016851E8031F026841F066
:101FE000100142E80313002BDAD10023184601B098
:101FF000704700BF0123184601B0704710B5006854
:1020000041F20002C4F20102904218BF10BD0C461A
:1020100000F0A0FD214600F0C9FD00F09BFD014647
:1020200040F25C30C2F200003222BDE81040FFF7FF
:1020300081BF000070470000B0B582B00446006860
:102040000168C368426901F02F05202D03F02005C7
:1020500006D12DB1204602B0BDE8B04001F040B835
:102060005FEA017C1EBF02F0010E03F4907212EBD6
:102070000E0253D1226B012A05D111F0100218BFB4
:1020800013F0100236D10A0622D513F080021FD0B9
:1020900094F8411021293FD1A168B1F5805F03D1A7
:1020A0002169002900F08282216A4A1C2262097893
:1020B0004160E18C01390A04E1842DD1C16821F02D
:1020C0008001C160C16841F04001C16002B0B0BD93
:1020D000490621D513F040011ED0C16821F040010E
:1020E000C1602021204684F8411002B0BDE8B04014
:1020F00000F0F2BA0021019101680191416801915B
:1021000001994069400613D4A08DE18DE28D002A2B
:1021100018BF884240F0CC8102B0B0BDCA0718BFDA
:1021200013F4807240F0BE804A0700F1C180C6E01F
:10213000E06B01684A68A38D91B2002900F0A88184
:10214000994280F0A581E285C069B0F5807F00F0FA
:102150009D80206850E8030F216820F4807041E8DA
:102160000302DAB1206850E8030F216820F4807080
:1021700041E8030292B1206850E8030F216820F47F
:10218000807041E803024AB1206850E8030F2168DB
:1021900020F4807041E80302002ADAD1206850E878
:1021A000050F216820F0010041E80502BAB320685C
:1021B00050E8050F216820F0010041E8050272B3E4
:1021C000206850E8050F216820F0010041E8050271
:1021D0002AB3206850E8050F216820F0010041E88B
:1021E0000502002ADAD11AE0206850E8050F2168BC
:1021F00020F0400041E80502DAB1206850E8050F00
:10220000216820F0400041E8050292B1206850E8C2
:10221000050F216820F0400041E805024AB120681E
:1022200050E8050F216820F0400041E80502002A2F
:10223000DAD1202084F8420000202063206850E892
:10224000030F216820F0100041E80302DAB1206892
:1022500050E8030F216820F0100041E8030292B11A
:10226000206850E8030F216820F0100041E80302C5
:102270004AB1206850E8030F216820F0100041E8BF
:102280000302002ADAD1E06BFEF72AFE0220606327
:10229000A08DE18D401A81B2204602B0BDE8B04069
:1022A000FFF7ACBE626C42F0010262644A0706D5D9
:1022B000BEF1000F03D0626C42F0020262648A0732
:1022C00006D5BEF1000F03D0626C42F004026264D6
:1022D000BCF1000F09D545EA0E02B2FA82F25209AA
:1022E00003D1626C42F008026264626C002A3FF41F
:1022F00013AF11F0200118BF002D03D0204600F0CD
:10230000EFFE20684069616C00F0400001F00801B8
:10231000401800F0B58000BF206850E8030F216826
:1023200020F4907041E80302BAB3206850E8030F2C
:10233000216820F4907041E8030272B3206850E8ED
:10234000030F216820F4907041E803022AB320684B
:1023500050E8030F216820F4907041E80302002A3E
:10236000DAD11AE0206850E8050F216820F001005A
:1023700041E80502DAB1206850E8050F216820F035
:10238000010041E8050292B1206850E8050F21687C
:1023900020F0010041E805024AB1206850E8050F2D
:1023A000216820F0010041E80502002ADAD1206B03
:1023B000012824D1206850E8030F216820F0100084
:1023C00041E80302DAB1206850E8030F216820F0E9
:1023D000100041E8030292B1206850E8030F216821
:1023E00020F0100041E803024AB1206850E8030FD2
:1023F000216820F0100041E80302002ADAD12020F1
:1024000084F842000020206320684069400649D5D6
:10241000206850E8050F216820F0400041E80502DF
:10242000DAB1206850E8050F216820F0400041E84B
:10243000050292B1206850E8050F216820F04000A5
:1024400041E805024AB1206850E8050F216820F0F4
:10245000400041E80502002ADAD1E06B10B343F2F4
:10246000D501C0F600010165FEF782FD00283FF4AA
:1024700053AEE06B016D02B0BDE8B040084700BF4D
:102480002046FFF7D7FD0020606402B0B0BD00BF5A
:102490008B427FF441AEC069B0F5807F7FF43CAEE3
:1024A00002227CE0204602B0BDE8B040FFF7C2BD8A
:1024B000401A216851E8031F226821F4907142E814
:1024C0000313DBB1216851E8031F226821F49071E6
:1024D00042E8031393B1216851E8031F226821F4F5
:1024E000907142E803134BB1216851E8031F226841
:1024F00021F4907142E80313002BDAD1216851E8EE
:10250000051F226821F0010142E80513DBB12168B3
:1025100051E8051F226821F0010142E8051393B13B
:10252000216851E8051F226821F0010142E80513E6
:102530004BB1216851E8051F226821F0010142E8F2
:102540000513002BDAD1202184F8421000212163E9
:10255000216851E8031F226821F0100142E80313AB
:10256000DBB1216851E8031F226821F0100142E825
:10257000031393B1216851E8031F226821F0100171
:1025800042E803134BB1216851E8031F226821F090
:10259000100142E80313002BDAD1022281B2204657
:1025A000626302B0BDE8B040FFF728BD216A31F890
:1025B000022B6FF35F22426021627AE5002804BF9C
:1025C0000120704710B5044690F8410028B900205A
:1025D00084F84000204600F021F8242084F84100CF
:1025E0002068C16821F40051C160204600F0F8FD68
:1025F0002068016921F490410161416921F02A01BB
:102600004161C16841F40051C16000202021606433
:1026100084F8411084F84210606310BD70B586B034
:102620000446016841F20000C4F20100814201D079
:1026300006B070BD002643F630010196C4F20201D7
:102640004A6900F5704042F010024A614A6902F09E
:1026500010020192019A01960A6842F001020A6092
:10266000096801F00101019101994FF4C0610191E4
:102670000221CDE90216032104910721059101A948
:10268000FEF71AFE40F2B42546F24040C2F20005C1
:10269000C4F202004FF000614FF4806285E843000D
:1026A0002846C5E90362C5E90566C5E907666E62A5
:1026B000FEF750FD002818BFFEF73CF82520052145
:1026C0000022E563AC63FEF78FFF2520FEF778FF5D
:1026D00006B070BD7047000070470000FEE70000C4
:1026E00080B540F28C2046F20041C2F20000C4F2F4
:1026F00000010322002380E80E0000F10C014FF4DA
:10270000302C4FF4801E81E8085083618383FEF7EC
:10271000D1FA002808BF80BDBDE88040FEF70AB8A6
:1027200080B582B00020019043F63000C4F2020070
:102730000168002241F4800101600068052100F475
:102740008000019001983A20FEF74EFF3A2002B037
:10275000BDE88040FEF734BF80B588B00C4802AFBA
:1027600001900BA000F1040E9EE80E50806987E8EE
:102770000E50079001A8002100F0DEFD40F28821F4
:10278000C2F200010860FDF7F7FE08B080BD00BF8F
:10279000EC410008752E0008000000000000000059
:1027A00080000000000000000000000083B0002056
:1027B00043F630010290C4F202010A6842F00102BD
:1027C0000A600A6802F001020292029A01900A6805
:1027D00042F008020A600A6802F008020192019AB7
:1027E0000090086840F080000860086800F08000F1
:1027F0000090009803B0704710B540F25C3041F291
:102800000001C2F20000C4F2010100230C244FF4C5
:10281000E1324FF4005C4FF4806E80E80E50C0E966
:102820000543C361FFF7CAFE002808BF10BDBDE81D
:102830001040FDF77FBF0000FEE7000010B52DED52
:10284000028B40F2CC049FED178AC2F20004DFED48
:10285000161A9FED162A04F14000B0EE000AF0EEC1
:10286000480AB0EE481A00F051F9DFED121A40F2B2
:10287000FC109FED0F1AC2F20000B0EE080AF0EE55
:10288000480AB0EE612A00F041F9002084F83C00CB
:10289000C4E90500E061BDEC028BBDE81040FDF726
:1028A00089BE00BF000000000000FA44000080461E
:1028B000CDCC4C3D0000FA43B0B540F2FC10C2F262
:1028C000000090F8541040F2CC04C2F2000479B336
:1028D00090F85C2062B394F83C204AB3022943D0BC
:1028E00001296BD190ED131A9FED440A9FED412A07
:1028F0009FED414A21EE000AB4EE421AF1EE10FAC1
:10290000B0EE402AB4EE441A9FED383AB8BFB0EEAC
:10291000432AF1EE10FAC8BFB0EE420AD4ED0C0A19
:1029200084ED050A00F0A6F884ED060A3EE000BF3B
:1029300000200025FDF7D4FE40F2FC10C2F200009A
:1029400000F0EEF804F1400000F0EAF8C4E90555A3
:10295000E5612560D4E90C019FED240A6060A56063
:10296000E16084ED040AB0BD90ED140A9FED201AD9
:102970009FED202A9FED204A20EE011AB4EE420A74
:10298000F1EE10FAB0EE412AB4EE440A9FED173A88
:10299000B8BFB0EE432AF1EE10FAC8BFB0EE421A4B
:1029A00084ED061A00F0BCF894ED060AD4ED0D0A89
:1029B00004F1400000F05EF802E000BF9FED0B0A5A
:1029C00084ED070ABDEEC00A10EE100AFDF788FE7E
:1029D000D4E90501D4E90C2394ED070AC4E9000207
:1029E000A160E36084ED040AB0BD00BF00000000F8
:1029F00000C0B444CDCC4C3DCDCC4CBD0000B44265
:102A0000FEE70000000000000000000000000000E1
:102A1000EFF30980BFF36F8F154B1A681EF0100F8C
:102A200008BF20ED108A20E9F04F10602DE9090061
:102A30004FF0500080F31188BFF34F8FBFF36F8FBB
:102A400001F03CF94FF0000080F31188BDE8090067
:102A500019680868B0E8F04F1EF0100F08BFB0EC1E
:102A6000108A80F30988BFF36F8F704700BF00BFE3
:102A70005C01002090ED093A30EE601A00F114017B
:102A800090ED032A81EC030A90ED000A31EE033A3F
:102A9000B4EE423A21EE000AF1EE10FA80ED093A66
:102AA00006DCB1EE422AB4EE423AF1EE10FA03DA55
:102AB000B0EE423A80ED092A90ED014A90ED086AA5
:102AC00090ED025A24EE033A31EE464A90ED042A84
:102AD00025EE044A30EE030A30EE040AB4EE420A50
:102AE000F1EE10FA80ED081AC2BFB0EE420A80ED96
:102AF0000A2A7047B1EE421AB4EE410AF1EE10FA1A
:102B0000B8BFB0EE410A80ED0A0A7047002180ECA0
:102B1000050AC0E90511C0E90711C0E909117047AC
:102B20000021C0E90511C0E90711C0E9091170478A
:102B3000074B19680868B0E8F04F80F30988BFF3C5
:102B40006F8F4FF0000080F31188704700BF00BF07
:102B50005C01002040F28000C2F200001A30704791
:102B6000B0B540F28004C2F2000404F11A00322130
:102B7000FDF749FC00256576C4F81550C4F81150DE
:102B8000C4F80D50C4F80950C4F80550C4F80150F9
:102B90002570FEF765FC40F22821C2F20001C862F0
:102BA00081F8305081F82850B0BD000010B51929C7
:102BB00038BF10BD4FF0000E4FF0190C002306E097
:102BC00001331CFA83F28A421FFA83FE13D810F8ED
:102BD0000E200F2AF4D186449EF81820002AEFD147
:102BE00040F28004C2F20004601C71461922FDF715
:102BF000C5FB0120207010BDF0B581B0FEF730FCA0
:102C000040F2282EC2F2000EDEF82C10411A65297F
:102C100008D300208EF830008EF82800CEE9080096
:102C200001B0F0BD40F2800CC2F2000C9CF8001024
:102C3000012940F000819CF8011000220F298CF836
:102C4000002040F0F8809CF81910002940F0F38033
:102C5000AEF102030A220CF1010100BFA2F10A0445
:102C600001EBD405A2F109066D7801EBD60704F05B
:102C700007047F78E54006F0070605F0010527FA0E
:102C800006F666F34105A2F1080601EBD6077F7848
:102C900006F0070627FA06F606F0010645EA86055D
:102CA000D61F01EBD6077F7806F0070627FA06F64F
:102CB00006F0010645EAC605961F01EBD6077F78A8
:102CC00006F0070627FA06F606F0010645EA06159D
:102CD000561F01EBD6077F7806F0070627FA06F69F
:102CE00006F0010645EA4615161F01EBD6077F7868
:102CF00006F0070627FA06F606F0010645EA8615ED
:102D0000D61E01EBD6077F7806F0070627FA06F6EF
:102D1000971E01EBD7077F78F601F6B227FA04F485
:102D2000354304F0010445EA0424551E01EBD506A1
:102D3000767805F0070526FA05F505F0010544EA61
:102D4000452401EBD2056D7802F00706F54005F049
:102D5000010544EA85240B32BA2A23F8024F7FF496
:102D60007DAFBEF904109FED352A00EE101ABEF9B2
:102D70000210B8EEC00A9FED323A30EE020A80EE41
:102D8000031A00EE101AB8EEC00A30EE020A80EE06
:102D9000030A9CF81810CEF82C000120B7EE002A88
:102DA0008EF83000C1F380008EF82900C1F3C00016
:102DB0008EF82A00B4EE421AF1EE10FA8EED081ADF
:102DC0008EED090A12DD8EED082AB7EE001AB4EE78
:102DD000410AF1EE10FA19DCBFEE001AB4EE410A16
:102DE000F1EE10FAB8BF8EED091A11E0BFEE002A1D
:102DF000B4EE421AF1EE10FAB8BF8EED082AB7EE23
:102E0000001AB4EE410AF1EE10FAE5DD8EED091A72
:102E1000BEF908100023B1F52F7FB8BF01235B0076
:102E200040F2E247B942C8BF01230022002818BF80
:102E300013468EF8283001B0F0BD00BF000078C402
:102E400000004D44FFF7FAFC40F22824C2F20004CF
:102E500094F8300040B900BF0A2000F05FFA94F8FF
:102E600030000028F8D000BFFFF726FD022000F058
:102E700055FAF9E7012000F051FAFBE7FFF7BCFE35
:102E8000042000F04BFAF9E780B54FF0500080F3D2
:102E90001188BFF36F8FBFF34F8F01F075F830B11A
:102EA0004EF60450CEF200004FF080510160002039
:102EB00080F3118880BD000080B592B0002043F6F9
:102EC00040010B90CDE90900CDE907000590CDE95F
:102ED0000300CDE901000090C4F202010A6842F04B
:102EE00080520A60096801F080510091009947F210
:102EF00000010090C4F200010A6842F440420A60F6
:102F00000968012201F44041009100990221CDE9B4
:102F10000C1008200E90B420CDE90F010420099276
:102F20001022119006A806910A92FEF705FD18B12D
:102F300072B600BFFEE700BFFEF792FB10B172B69B
:102F4000FEE700BF0F2001900220029000200390B6
:102F50004FF4A05004904FF48050059001A8052133
:102F6000FEF7BCFB10B172B6FEE700BF12B080BD29
:102F70004EF68850CEF20000016841F47001016005
:102F80007047000040F21430C2F20000FEF71ABF92
:102F9000B0B540F6FF3E0568C4F2000E40F2004CAA
:102FA0007045C4F2010C27DCB0F1804F31D040F203
:102FB0000043C4F2000398422BD040F60003C4F251
:102FC0000003984225D041F6FF73C4F200039842F3
:102FD0002ADC70453CDCB0F1804F5FD040F200430A
:102FE000C4F20003984259D040F60003C4F2000333
:102FF000984253D057E000BF40F60043C4F20003AC
:10300000984206D0604504D00023C4F201039842E0
:10301000D9D14B6825F0700243EA020541F6FF73EF
:10302000C4F200039842D4DD43F6FF73C4F20103F7
:10303000984221DC42F20003C4F2000398422DD0F2
:103040000023C4F20103984228D0604526D02AE02C
:1030500040F60043C4F2000398421FD041F600033B
:10306000C4F20003984219D041F60043C4F20003B1
:10307000984213D017E000BF44F20003C4F20103EA
:1030800098420BD044F60003C4F20103984205D0E5
:1030900044F20043C4F20103984204D1CB6825F402
:1030A000407243EA02050A688C684B69C46240F4C6
:1030B00080648262644504BF09690163026825F087
:1030C000800142F004021943026001224261016062
:1030D000B0BD0000806B0021C185FEF7ABBF0000D2
:1030E00081B090F84210222921D183680246B3F5BD
:1030F000805F09D152F8281F52F8183C002B63D08A
:1031000003685B680AE000BF52F8281F13B903691F
:10311000002BF5D003685B6803F07F030B70116828
:1031200001311160C18D01390A04C18502D001B09D
:10313000704700BF0168CA6822F02002CA60CA68EE
:1031400022F48072CA604A6922F001024A61202199
:1031500080F8421000214163026B012A3CD10163D7
:10316000016851E8031F026821F0100142E80313CF
:10317000DBB1016851E8031F026821F0100142E849
:10318000031393B1016851E8031F026821F0100195
:1031900042E803134BB1016851E8031F026821F0B4
:1031A000100142E80313002BDAD101680A68D20645
:1031B00006D5002200920A680092496800910099A1
:1031C000818D01B0FEF71ABF026852686FF35F226B
:1031D00021F8022B8162A5E701B0FFF77BBA00005E
:1031E00010B504460068D4E902C22369016921F4DC
:1031F000405111430161626943EA0C01E3691143E3
:10320000C268194349F20C639A431143C160416992
:10321000A26921F4407141F20043114340F48062FD
:10322000C4F201039A42416102D1FEF73BFB01E087
:10323000FEF724FBE16963681922B1F5004FA0FB9A
:10324000020123D15A00DB0FFDF720F848F21F518D
:10325000C5F2EB11A0FB01235A094FF69C73C0F68F
:10326000FF7303F1805302FB0300322303EBC00022
:10327000A0FB01014FF4F87000EA111000EB0210FE
:10328000C1F3421108442168886010BD9A009B0F69
:10329000FCF7FCFF48F21F51C5F2EB11A0FB012324
:1032A0005A094FF69C73C0F6FF7302FB03003223EA
:1032B00003EB0010A0FB0101F02000EA511000EB2D
:1032C0000210C1F3431108442168886010BD00005A
:1032D00040F25C30C2F20000FEF7AEBEFEE7000036
:1032E000FEF7D2F8FFF7E8FDFFF760FAFFF718FAEC
:1032F000FFF7F6F9FFF780FAFFF732FCFFF72AFC39
:10330000014640F25C30C2F200003222FEF712FEAB
:10331000FFF722FA00F00AF8FEE7000080B5002867
:1033200008BF012000F00CFC002080BD80B500F03B
:1033300057FC002080BD0000B0B584B043698E46C4
:1033400093B1846984B10589D0E9001C026928B26F
:10335000843D18BFC51CCDE90053604673460294F6
:1033600000F0D6FD04B0B0BD0589D0E90013028A93
:1033700028B2843D18BFC51C03AC1846734600959F
:10338000019400F095FD0399012818BF002108461B
:1033900004B0B0BD2DE9F041044600F011FB40F24D
:1033A0005C16C2F20006306940F2A435013030618B
:1033B0003068C2F2000548B17069002840D1306819
:1033C000E16AC06A884298BF346039E0346030698D
:1033D000012835D1284600F099FA05F1140000F0D3
:1033E00095FA05F1280000F091FA05F13C0000F093
:1033F0008DFA05F1500000F089FA05F1640000F043
:1034000085FA05F1780000F081FA40F25C28C2F2FA
:103410000008404600F07AFA08F11407384600F038
:1034200075FA06F1640000F071FA06F13C0000F054
:103430006DFA06F1500000F069FAC6F83080776343
:103440007068B16801220131B160E16A8A401043BD
:10345000706001EB810005EB8000211D00F098FAFF
:1034600000F0D2FA706988B13068E16AC06A8842B7
:1034700028BFBDE8F0814EF60450CEF200004FF0B8
:1034800080510160BFF34F8FBFF36F8FBDE8F081B4
:1034900040F25C1540F2A4364EF60458C2F2000524
:1034A000C2F20006CEF200084FF0805703E000BFE2
:1034B000204600F0C1FAE868D0B100F081FAA86CAB
:1034C000C468201D00F002FA286901382861E86804
:1034D0000138E86000F098FA94F851000228EAD028
:1034E0000128E5D070B9206B00F0A6FAE0E700BF34
:1034F00030680228DFD3C8F80070BFF34F8FBFF3E6
:103500006F8FD8E74FF0500080F31188BFF36F8FB3
:10351000BFF34F8FFEE700002DE9F047DDE9098793
:103520008246386B089C00EB8200043899460029DB
:1035300020F0070656D0087887F83400087800286D
:103540004BD0487887F835004878002845D08878EF
:1035500087F83600887800283FD0C87887F8370089
:10356000C878D0B3087987F838000879A8B34879C3
:1035700087F83900487980B3887987F83A008879E4
:1035800058B3C87987F83B00C87930B3087A87F810
:103590003C00087A08B3487A87F83D00487AE0B1E1
:1035A000887A87F83E00887AB8B1C87A87F83F00F1
:1035B000C87A90B1087B87F84000087B68B1487BE7
:1035C00087F84100487B40B1887B87F84200887BC0
:1035D00000281CBFC87B87F84300002087F8430001
:1035E00003E000BF002087F834000025381D062CBA
:1035F00028BF0624FC62C7E9114500F093F907F1E2
:10360000180000F08FF984F00700B8613046514689
:103610004A463F617F62FD6487F8505000F042F9EE
:10362000B8F1000F386018BFC8F80070BDE8F08727
:1036300008480068006880F308884FF0000080F3B5
:10364000148862B661B6BFF34F8FBFF36F8F00DF90
:1036500000BF000008ED00E081B00020009040F2C3
:103660001000C2F2000000684FF0500181F3118891
:10367000BFF36F8FBFF34F8F013007D0FEE700BF5E
:10368000009830B9009820B9009810B90098002827
:10369000F6D001B07047000070B5044600F006FB9C
:1036A00040F2D41CC2F2000CDCF8040050B19CF8CB
:1036B0000000002818BF4FF000404FF0000574BB19
:1036C0008DE000BF40F23040C2F20000C21D22F087
:1036D000070210F00701A0EB020318BF10460022FA
:1036E0004FF47055CCE90602002918BF03F5705558
:1036F000411921F00701A1F10803CCF8043041E998
:103700000222191AC0E9003101208CF800004FF0A4
:103710000040CCE90211002C4FF000055FD02040A2
:103720005DD124F0070000F11002600708BF04F12A
:103730000802002A4FF0000551D0DCF80800824250
:103740004DD8604650F818EFDEF8045095422CD260
:10375000DEF80010C1B174464D68954218D20B686E
:10376000B3B15D68954217D21868A8B14568954213
:1037700016D20468A4B16568954215D22168A646A0
:103780000029E9D111E000BF0CF118000DE000BFE5
:103790008E46204609E000BF9E46084605E000BF71
:1037A0008646184601E000BFA646DCF804108E45A8
:1037B00014D00168DEF80040AB1A112B04604DD321
:1037C0000EEB0205680719D04FF0500080F3118806
:1037D000BFF36F8FBFF34F8FFEE700BF002500F0F0
:1037E00057FC68075BD04FF0500080F31188BFF39F
:1037F0006F8FBFF34F8F00BFFEE700BF0CF11800C3
:103800006B60CEF8042000BF0368AB420AD2186890
:10381000A8420BD20368AB4204D218681A46A842E9
:10382000F2D304E00246184601E000BF1A4653688E
:103830006C68D618AE4202D11C44154654602B1950
:10384000834207D1DCF80430984203D0D0E900036A
:1038500023446B60AA42286018BF156001F1080577
:10386000DEF80400DCE90212091A9142CCF80810D3
:1038700038BFCCF80C109CF80010002918BF40F09D
:103880000040CEF80400DCF8100000210130CEF832
:103890000010CCF8100000F0FBFB6807A3D128460D
:1038A00070BD0000034643F25960C0F600004FF0BF
:1038B000807C21F0010103E903106FF0020043F85E
:1038C000240CA3F1440043F8202C7047D0E90132C6
:1038D00001699A60D1F804C082688445536008BFCA
:1038E0004A60002202610868013808600868704771
:1038F00044F23423C2F20003036044F23400C2F203
:103900000000086080201060704700004FF0FF3119
:10391000024642F8081F00214260C0E9032201600C
:1039200070470000002101617047000010B5D1F818
:1039300000E01EF1010213D000F108046268136870
:10394000734511D853681C68744511D85A681468B7
:1039500074450FD854682368A4467345EED90BE02C
:103960000269D2F804C007E09446224604E000BF92
:103970009C4601E094461A46C1F804C0CCF80810F1
:103980008A605160086101680131016010BD00006A
:10399000D0F800C0436808619A684B608A609A68F2
:1039A000996051600CF1010101607047DFF80C0073
:1039B000016841F4700101607047000088ED00E08B
:1039C0004FF0500080F31188BFF36F8FBFF34F8F1C
:1039D00040F21000C2F2000001684A1C026009B106
:1039E000704700BF4EF60450CEF20000006800069B
:1039F00008BF70474FF0500080F31188BFF36F8FFE
:103A0000BFF34F8FFEE7000040F21000C2F200004B
:103A1000016839B10139016018BF7047002080F397
:103A2000118870474FF0500080F31188BFF36F8FFB
:103A3000BFF34F8FFEE7000070B5002808BF70BDD0
:103A400040F2D415C2F200050446287854F8041C4C
:103A5000002818BF4FF0004008420DD0A4F108061E
:103A600032689AB14FF0500080F31188BFF36F8F26
:103A7000BFF34F8FFEE700BF4FF0500080F3118877
:103A8000BFF36F8FBFF34F8FFEE700BF21EA000047
:103A900044F8040C00F00AF954F8041CA86808441F
:103AA000A86005F1180000BF0368B3420AD2186885
:103AB000B04225D20368B34204D218681A46B04215
:103AC000F2D301E0024618465368D418B44202D13A
:103AD0001944164651607318834206D16B689842A8
:103AE00003D0D0E9000319447160B242306018BFBE
:103AF0001660686901306861BDE8704000F0C8BABE
:103B00001A465368D418B442E5D1E1E74EF21000EA
:103B1000CEF2000000210160816040F20C01C2F28F
:103B20000001096844F6D352C1F26202A1FB0212FD
:103B30004FF0FF3101EB92114160072101607047A6
:103B400070B500283FD040F25C15C2F20005044673
:103B5000A86948B14FF0500080F31188BFF36F8F10
:103B6000BFF34F8FFEE700BFA8690130A8616E6AFE
:103B700028680430FFF7AAFE50B12868A4194460F1
:103B800013D3686B29680431FFF7D0FE16E000BF3D
:103B900028680121C06A6A6801FA00F022EA000080
:103BA00068602868A4194460EBD2286B2968043146
:103BB000FFF7BCFE286A844238BF2C6200F068FA26
:103BC000002818BF70BD4EF60450CEF200004FF032
:103BD00080510160BFF34F8FBFF36F8F70BD000046
:103BE000B0B588B00020CDE9050006A805A904AA53
:103BF000FFF77EFE0598B8B3069C002C3ED05421FA
:103C0000049A07910799542942D107992063022009
:103C100084F8510007A80025CDE9005043F29140F7
:103C2000C0F600001FA100230294FFF775FC204698
:103C3000FFF7B0FB079940F25C10C2F20000C161CF
:103C400079B14FF0500181F31188BFF36F8FBFF34B
:103C50004F8F4FF0FF31016201214161456200F059
:103C600065F808B0B0BD00BF4FF0500080F3118878
:103C7000BFF36F8FBFF34F8FFEE700BF4FF05000D1
:103C800080F31188BFF36F8FBFF34F8FFEE700BF44
:103C90004FF0500080F31188BFF36F8FBFF34F8F49
:103CA000FEE700BF49444C450000000040F25C10B4
:103CB000C2F20000816901318161704740F25C10FD
:103CC000C2F20000816900291EBF01218162704794
:103CD000002181624168B1FA81F1C9B2C1F11F01CD
:103CE00040F2A43201EB8101C2F2000252F821300D
:103CF00063B102EB810252F8041F4968131D994217
:103D000011600DD0C9680160704700BF4FF05000CE
:103D100080F31188BFF36F8FBFF34F8FFEE700BFB3
:103D200049681160C968016070470000B0B584B08F
:103D30004EF2004CCEF2000C4CF27021C4F20F1186
:103D4000DCF800294B1C9A420AD14FF0500080F356
:103D50001188BFF36F8FBFF34F8F00BFFEE700BF27
:103D6000DCF800298A4209D14FF0500080F3118815
:103D7000BFF36F8FBFF34F8FFEE700BF9CF80010BB
:103D80000291FF218CF800109CF800108DF80710AC
:103D90009DF8071001F0500240F2F411C2F2000148
:103DA0000A7007224A609DF90720B2F1FF3F69DCE3
:103DB000032200BFD31C4B609DF8070040008DF824
:103DC00007009DF90700B0F1FF3F23DC931C4B6017
:103DD0009DF8070040008DF807009DF90700B0F13D
:103DE000FF3F17DC531C4B609DF8070040008DF827
:103DF00007009DF90700B0F1FF3F0BDC4A609DF81A
:103E00000700043A40008DF807009DF907000028DC
:103E1000D0D4131D032B35D14FF440704860029865
:103E20008CF80000DCF8200940F47000CCF8200980
:103E3000DCF8200940F07040CCF82009FFF766FE5E
:103E400040F21004C2F2000400252560FFF7AEFD29
:103E50004EF63470CEF20000016841F0404101603E
:103E6000FFF7E6FBFFF72AFF039520684FF05001AC
:103E700081F31188BFF36F8FBFF34F8F013011D0E3
:103E8000FEE700BF4FF0500080F31188BFF36F8F43
:103E9000BFF34F8FFEE700BF039830B9039820B9F6
:103EA000039810B903980028F6D0002004B0B0BDE4
:103EB0002DE9F04383B007469000984615468946A1
:103EC000FFF7EAFBF8B106465420FFF7E5FBB8B16F
:103ED0000446DDE90A100022266384F85120CDE96A
:103EE0000010384649462A4643460294FFF714FB21
:103EF0002046FFF74FFA012003B0BDE8F08300BF72
:103F00003046FFF799FD4FF0FF3003B0BDE8F08376
:103F100070B586B00B9CCCB10C9E0EB354250495A5
:103F2000049D542D26D1049DDDF828C0022586F875
:103F3000515005AD3463CDE900C50296FFF7ECFAA8
:103F40003046FFF727FA059806B070BD4FF05000D5
:103F500080F31188BFF36F8FBFF34F8FFEE700BF71
:103F60004FF0500080F31188BFF36F8FBFF34F8F76
:103F7000FEE700BF4FF0500080F31188BFF36F8F52
:103F8000BFF34F8FFEE700002DE9F04740F25C16CB
:103F9000C2F20006B06928B1F06A0130F062002078
:103FA000BDE8F087706A10F1010AC6F824A020D39A
:103FB000306B006850B14FF0500080F31188BFF3B0
:103FC0006F8FBFF34F8F00BFFEE700BF306B716B89
:103FD00031637063B06B0130B063306B006828B13F
:103FE000306BC068C068406802E000BF4FF0FF302F
:103FF0003062306A40F2A4388245C2F2000801D231
:10400000002434E0306B0024006868B34FF00109ED
:1040100016E000BFF86A716809FA00F2114300EB7C
:104020008000716008EB80002946FFF7B1FCF86A58
:104030003168C96A326B8842106828BF4C4698B113
:10404000306BC068C7683D4655F8040F82450DD3F4
:104050002846FFF73BFCB86A0028DBD007F11800C0
:10406000FFF734FCD6E700BF4FF0FF303062306816
:10407000C06A00EB800058F82000012888BF0124A6
:10408000B06A002818BF01242046BDE8F087000070
:104090002DE9F04140F25C15C2F20005A86968B153
:1040A000FFF78EFCA8690138A861A86980B10024D7
:1040B000FFF7AAFC2046BDE8F08100BF4FF050009A
:1040C00080F31188BFF36F8FBFF34F8FFEE700BF00
:1040D00028690028EBD0686E78B340F2A438012636
:1040E000C2F20008286FC76807F11800FFF7EEFB5F
:1040F0003C1D2046FFF7EAFBF86A696806FA00F201
:10410000114300EB8000696008EB80002146FFF757
:104110003FFCF86A2968C96A884228BFAE62686EA7
:104120000028DFD1286B006820B1286BC068C06808
:10413000406801E04FF0FF302862EC6A4CB1012684
:10414000FFF722FF002818BFAE62013CF8D1002023
:10415000E862A86A0028AAD04EF60450CEF2000009
:104160004FF080510160BFF34F8F0124BFF36F8F79
:10417000FFF74AFC2046BDE8F081F1EE100A4FF649
:10418000FF71C0F2C03120EA010040F04070E1EE62
:10419000100A704700000000000000000102030444
:1041A00006070809000000000102030400061016BB
:1041B00000061016F8410008452E00080100000016
:1041C00000000000000200000000000000000000ED
:1041D000014200087D2E00080200000000000000DF
:1041E000000200000000000000000000646566613D
:1041F000756C745461736B006374726C5461736B8F
:1042000000736275735461736B00000030420008E4
:104210000000002018000000E801000848420008E3
:104220001800002070480000040200080000000090
:104230000100000010000000FFFFFFFF0024F40059
:08424000AAAAAAAA00000000CE
:04000005080001AD41
:00000001FF
